{
  "_format": "hh-sol-artifact-1",
  "contractName": "MultisigFactory",
  "sourceName": "contracts/MultisigFactory.sol",
  "abi": [
    {
      "inputs": [
        {
          "internalType": "uint256",
          "name": "_quorum",
          "type": "uint256"
        },
        {
          "internalType": "address[]",
          "name": "_validSigners",
          "type": "address[]"
        }
      ],
      "name": "createMultisigWallet",
      "outputs": [
        {
          "internalType": "contract MultiSig",
          "name": "newMulsig_",
          "type": "address"
        },
        {
          "internalType": "uint256",
          "name": "length_",
          "type": "uint256"
        }
      ],
      "stateMutability": "nonpayable",
      "type": "function"
    },
    {
      "inputs": [],
      "name": "getMultiSigClones",
      "outputs": [
        {
          "internalType": "contract MultiSig[]",
          "name": "",
          "type": "address[]"
        }
      ],
      "stateMutability": "view",
      "type": "function"
    }
  ],
  "bytecode": "0x608060405234801561001057600080fd5b506126cf806100206000396000f3fe60806040523480156200001157600080fd5b50600436106200003a5760003560e01c8063109dd5e9146200003f578063daebf2081462000061575b600080fd5b6200004962000098565b60405162000058919062000330565b60405180910390f35b6200007f60048036038101906200007991906200055d565b62000128565b6040516200008f929190620005e5565b60405180910390f35b606060008054806020026020016040519081016040528092919081815260200182805480156200011e57602002820191906000526020600020905b8160009054906101000a900473ffffffffffffffffffffffffffffffffffffffff1673ffffffffffffffffffffffffffffffffffffffff1681526020019060010190808311620000d3575b5050505050905090565b60008083836040516200013b90620001da565b62000148929190620006cf565b604051809103906000f08015801562000165573d6000803e3d6000fd5b5091506000829080600181540180825580915050600190039060005260206000200160009091909190916101000a81548173ffffffffffffffffffffffffffffffffffffffff021916908373ffffffffffffffffffffffffffffffffffffffff16021790555060008054905090509250929050565b611f96806200070483390190565b600081519050919050565b600082825260208201905092915050565b6000819050602082019050919050565b600073ffffffffffffffffffffffffffffffffffffffff82169050919050565b6000819050919050565b60006200025f62000259620002538462000214565b62000234565b62000214565b9050919050565b600062000273826200023e565b9050919050565b6000620002878262000266565b9050919050565b62000299816200027a565b82525050565b6000620002ad83836200028e565b60208301905092915050565b6000602082019050919050565b6000620002d382620001e8565b620002df8185620001f3565b9350620002ec8362000204565b8060005b83811015620003235781516200030788826200029f565b97506200031483620002b9565b925050600181019050620002f0565b5085935050505092915050565b600060208201905081810360008301526200034c8184620002c6565b905092915050565b6000604051905090565b600080fd5b600080fd5b6000819050919050565b6200037d8162000368565b81146200038957600080fd5b50565b6000813590506200039d8162000372565b92915050565b600080fd5b6000601f19601f8301169050919050565b7f4e487b7100000000000000000000000000000000000000000000000000000000600052604160045260246000fd5b620003f382620003a8565b810181811067ffffffffffffffff82111715620004155762000414620003b9565b5b80604052505050565b60006200042a62000354565b9050620004388282620003e8565b919050565b600067ffffffffffffffff8211156200045b576200045a620003b9565b5b602082029050602081019050919050565b600080fd5b60006200047e8262000214565b9050919050565b620004908162000471565b81146200049c57600080fd5b50565b600081359050620004b08162000485565b92915050565b6000620004cd620004c7846200043d565b6200041e565b90508083825260208201905060208402830185811115620004f357620004f26200046c565b5b835b818110156200052057806200050b88826200049f565b845260208401935050602081019050620004f5565b5050509392505050565b600082601f830112620005425762000541620003a3565b5b813562000554848260208601620004b6565b91505092915050565b600080604083850312156200057757620005766200035e565b5b600062000587858286016200038c565b925050602083013567ffffffffffffffff811115620005ab57620005aa62000363565b5b620005b9858286016200052a565b9150509250929050565b620005ce816200027a565b82525050565b620005df8162000368565b82525050565b6000604082019050620005fc6000830185620005c3565b6200060b6020830184620005d4565b9392505050565b600081519050919050565b6000819050602082019050919050565b620006388162000471565b82525050565b60006200064c83836200062d565b60208301905092915050565b6000602082019050919050565b6000620006728262000612565b6200067e8185620001f3565b93506200068b836200061d565b8060005b83811015620006c2578151620006a688826200063e565b9750620006b38362000658565b9250506001810190506200068f565b5085935050505092915050565b6000604082019050620006e66000830185620005d4565b8181036020830152620006fa818462000665565b9050939250505056fe60806040523480156200001157600080fd5b5060405162001f9638038062001f96833981810160405281019062000037919062000620565b60018151116200007e576040517f08c379a00000000000000000000000000000000000000000000000000000000081526004016200007590620006e7565b60405180910390fd5b60018211620000c4576040517f08c379a0000000000000000000000000000000000000000000000000000000008152600401620000bb9062000759565b60405180910390fd5b60005b81518110156200029057600073ffffffffffffffffffffffffffffffffffffffff16828281518110620000ff57620000fe6200077b565b5b602002602001015173ffffffffffffffffffffffffffffffffffffffff160362000160576040517f08c379a00000000000000000000000000000000000000000000000000000000081526004016200015790620007fa565b60405180910390fd5b600460008383815181106200017a57620001796200077b565b5b602002602001015173ffffffffffffffffffffffffffffffffffffffff1673ffffffffffffffffffffffffffffffffffffffff16815260200190815260200160002060009054906101000a900460ff16156200020d576040517f08c379a000000000000000000000000000000000000000000000000000000000815260040162000204906200086c565b60405180910390fd5b6001600460008484815181106200022957620002286200077b565b5b602002602001015173ffffffffffffffffffffffffffffffffffffffff1673ffffffffffffffffffffffffffffffffffffffff16815260200190815260200160002060006101000a81548160ff0219169083151502179055508080600101915050620000c7565b508051600160006101000a81548160ff021916908360ff160217905550600460003373ffffffffffffffffffffffffffffffffffffffff1673ffffffffffffffffffffffffffffffffffffffff16815260200190815260200160002060009054906101000a900460ff1662000390576001600460003373ffffffffffffffffffffffffffffffffffffffff1673ffffffffffffffffffffffffffffffffffffffff16815260200190815260200160002060006101000a81548160ff02191690831515021790555060018060008282829054906101000a900460ff16620003779190620008ca565b92506101000a81548160ff021916908360ff1602179055505b600160009054906101000a900460ff1660ff16821115620003e8576040517f08c379a0000000000000000000000000000000000000000000000000000000008152600401620003df906200097c565b60405180910390fd5b8160008190555050506200099e565b6000604051905090565b600080fd5b600080fd5b6000819050919050565b62000420816200040b565b81146200042c57600080fd5b50565b600081519050620004408162000415565b92915050565b600080fd5b6000601f19601f8301169050919050565b7f4e487b7100000000000000000000000000000000000000000000000000000000600052604160045260246000fd5b62000496826200044b565b810181811067ffffffffffffffff82111715620004b857620004b76200045c565b5b80604052505050565b6000620004cd620003f7565b9050620004db82826200048b565b919050565b600067ffffffffffffffff821115620004fe57620004fd6200045c565b5b602082029050602081019050919050565b600080fd5b600073ffffffffffffffffffffffffffffffffffffffff82169050919050565b6000620005418262000514565b9050919050565b620005538162000534565b81146200055f57600080fd5b50565b600081519050620005738162000548565b92915050565b6000620005906200058a84620004e0565b620004c1565b90508083825260208201905060208402830185811115620005b657620005b56200050f565b5b835b81811015620005e35780620005ce888262000562565b845260208401935050602081019050620005b8565b5050509392505050565b600082601f83011262000605576200060462000446565b5b81516200061784826020860162000579565b91505092915050565b600080604083850312156200063a576200063962000401565b5b60006200064a858286016200042f565b925050602083015167ffffffffffffffff8111156200066e576200066d62000406565b5b6200067c85828601620005ed565b9150509250929050565b600082825260208201905092915050565b7f6665772076616c6964207369676e657273000000000000000000000000000000600082015250565b6000620006cf60118362000686565b9150620006dc8262000697565b602082019050919050565b600060208201905081810360008301526200070281620006c0565b9050919050565b7f71756f72756d20697320746f6f20736d616c6c00000000000000000000000000600082015250565b60006200074160138362000686565b91506200074e8262000709565b602082019050919050565b60006020820190508181036000830152620007748162000732565b9050919050565b7f4e487b7100000000000000000000000000000000000000000000000000000000600052603260045260246000fd5b7f7a65726f2061646472657373206e6f7420616c6c6f7765640000000000000000600082015250565b6000620007e260188362000686565b9150620007ef82620007aa565b602082019050919050565b600060208201905081810360008301526200081581620007d3565b9050919050565b7f7369676e657220616c7265616479206578697374000000000000000000000000600082015250565b60006200085460148362000686565b915062000861826200081c565b602082019050919050565b60006020820190508181036000830152620008878162000845565b9050919050565b600060ff82169050919050565b7f4e487b7100000000000000000000000000000000000000000000000000000000600052601160045260246000fd5b6000620008d7826200088e565b9150620008e4836200088e565b9250828201905060ff8111156200090057620008ff6200089b565b5b92915050565b7f71756f72756d2067726561746572207468616e2076616c6964207369676e657260008201527f7300000000000000000000000000000000000000000000000000000000000000602082015250565b60006200096460218362000686565b9150620009718262000906565b604082019050919050565b60006020820190508181036000830152620009978162000955565b9050919050565b6115e880620009ae6000396000f3fe608060405234801561001057600080fd5b506004361061007d5760003560e01c80633c5406871161005b5780633c540687146100ee578063bad0a3b81461010c578063ccb570e314610128578063d3bec60a146101445761007d565b80631087393a146100825780631703a018146100b257806317eff51b146100d0575b600080fd5b61009c60048036038101906100979190610db9565b610162565b6040516100a99190610df5565b60405180910390f35b6100ba61068b565b6040516100c79190610df5565b60405180910390f35b6100d8610691565b6040516100e59190610e2c565b60405180910390f35b6100f66106a4565b6040516101039190610df5565b60405180910390f35b61012660048036038101906101219190610e73565b6106aa565b005b610142600480360381019061013d9190610efe565b610811565b005b61014c610d78565b6040516101599190610df5565b60405180910390f35b60008060056000848152602001908152602001600020905060008160000154036101c1576040517f08c379a00000000000000000000000000000000000000000000000000000000081526004016101b890610fae565b60405180910390fd5b80600101548160060160009054906101000a900473ffffffffffffffffffffffffffffffffffffffff1673ffffffffffffffffffffffffffffffffffffffff166370a08231306040518263ffffffff1660e01b81526004016102239190610fdd565b602060405180830381865afa158015610240573d6000803e3d6000fd5b505050506040513d601f19601f82011682018060405250810190610264919061100d565b10156102a5576040517f08c379a000000000000000000000000000000000000000000000000000000000815260040161029c90611086565b60405180910390fd5b8060030160149054906101000a900460ff16156102f7576040517f08c379a00000000000000000000000000000000000000000000000000000000081526004016102ee906110f2565b60405180910390fd5b60005481600501541061033f576040517f08c379a00000000000000000000000000000000000000000000000000000000081526004016103369061115e565b60405180910390fd5b600460003373ffffffffffffffffffffffffffffffffffffffff1673ffffffffffffffffffffffffffffffffffffffff16815260200190815260200160002060009054906101000a900460ff166103cb576040517f08c379a00000000000000000000000000000000000000000000000000000000081526004016103c2906111ca565b60405180910390fd5b600660003373ffffffffffffffffffffffffffffffffffffffff1673ffffffffffffffffffffffffffffffffffffffff168152602001908152602001600020600084815260200190815260200160002060009054906101000a900460ff1615610469576040517f08c379a000000000000000000000000000000000000000000000000000000000815260040161046090611236565b60405180910390fd5b6001600660003373ffffffffffffffffffffffffffffffffffffffff1673ffffffffffffffffffffffffffffffffffffffff168152602001908152602001600020600085815260200190815260200160002060006101000a81548160ff02191690831515021790555060018160050160008282546104e79190611285565b9250508190555080600701339080600181540180825580915050600190039060005260206000200160009091909190916101000a81548173ffffffffffffffffffffffffffffffffffffffff021916908373ffffffffffffffffffffffffffffffffffffffff1602179055506000548160050154036106495760018160030160146101000a81548160ff0219169083151502179055508060060160009054906101000a900473ffffffffffffffffffffffffffffffffffffffff1673ffffffffffffffffffffffffffffffffffffffff1663a9059cbb8260030160009054906101000a900473ffffffffffffffffffffffffffffffffffffffff1683600101546040518363ffffffff1660e01b81526004016106049291906112b9565b6020604051808303816000875af1158015610623573d6000803e3d6000fd5b505050506040513d601f19601f82011682018060405250810190610647919061131a565b505b7f7b39c92a7e1a86e846edaeff6eba715a046352c596794c2a374269c126a99768833360405161067a929190611347565b60405180910390a182915050919050565b60005481565b600160009054906101000a900460ff1681565b60025481565b600460003373ffffffffffffffffffffffffffffffffffffffff1673ffffffffffffffffffffffffffffffffffffffff16815260200190815260200160002060009054906101000a900460ff16610736576040517f08c379a000000000000000000000000000000000000000000000000000000000815260040161072d906111ca565b60405180910390fd5b60018160ff161161077c576040517f08c379a0000000000000000000000000000000000000000000000000000000008152600401610773906113bc565b60405180910390fd5b600160009054906101000a900460ff1660ff168160ff1611156107d4576040517f08c379a00000000000000000000000000000000000000000000000000000000081526004016107cb9061144e565b60405180910390fd5b8060ff166000819055508060ff167f35680dc2875c9254a3fe73202b1b9cf45a6f791accb134c5f591a9f3f0ab445f60405160405180910390a250565b600073ffffffffffffffffffffffffffffffffffffffff163373ffffffffffffffffffffffffffffffffffffffff1603610880576040517f08c379a0000000000000000000000000000000000000000000000000000000008152600401610877906114ba565b60405180910390fd5b600460003373ffffffffffffffffffffffffffffffffffffffff1673ffffffffffffffffffffffffffffffffffffffff16815260200190815260200160002060009054906101000a900460ff1661090c576040517f08c379a000000000000000000000000000000000000000000000000000000000815260040161090390611526565b60405180910390fd5b6000831161094f576040517f08c379a000000000000000000000000000000000000000000000000000000000815260040161094690611592565b60405180910390fd5b600073ffffffffffffffffffffffffffffffffffffffff168273ffffffffffffffffffffffffffffffffffffffff16036109be576040517f08c379a00000000000000000000000000000000000000000000000000000000081526004016109b5906114ba565b60405180910390fd5b600073ffffffffffffffffffffffffffffffffffffffff168173ffffffffffffffffffffffffffffffffffffffff1603610a2d576040517f08c379a0000000000000000000000000000000000000000000000000000000008152600401610a24906114ba565b60405180910390fd5b828173ffffffffffffffffffffffffffffffffffffffff166370a08231306040518263ffffffff1660e01b8152600401610a679190610fdd565b602060405180830381865afa158015610a84573d6000803e3d6000fd5b505050506040513d601f19601f82011682018060405250810190610aa8919061100d565b1015610ae9576040517f08c379a0000000000000000000000000000000000000000000000000000000008152600401610ae090611086565b60405180910390fd5b600160036000828254610afc9190611285565b92505081905550600060056000600354815260200190815260200160002090506003548160000181905550838160010181905550828160030160006101000a81548173ffffffffffffffffffffffffffffffffffffffff021916908373ffffffffffffffffffffffffffffffffffffffff160217905550338160020160006101000a81548173ffffffffffffffffffffffffffffffffffffffff021916908373ffffffffffffffffffffffffffffffffffffffff160217905550428160040181905550818160060160006101000a81548173ffffffffffffffffffffffffffffffffffffffff021916908373ffffffffffffffffffffffffffffffffffffffff1602179055506001816005016000828254610c179190611285565b9250508190555080600701339080600181540180825580915050600190039060005260206000200160009091909190916101000a81548173ffffffffffffffffffffffffffffffffffffffff021916908373ffffffffffffffffffffffffffffffffffffffff1602179055506001600660003373ffffffffffffffffffffffffffffffffffffffff1673ffffffffffffffffffffffffffffffffffffffff1681526020019081526020016000206000600354815260200190815260200160002060006101000a81548160ff021916908315150217905550600160026000828254610d019190611285565b925050819055508273ffffffffffffffffffffffffffffffffffffffff163373ffffffffffffffffffffffffffffffffffffffff166003547f227e58b8c176111094bcb6377c6bc077bf3dc9bbd089539116c826ee827c6a8e8786604051610d6a929190611347565b60405180910390a450505050565b60035481565b600080fd5b6000819050919050565b610d9681610d83565b8114610da157600080fd5b50565b600081359050610db381610d8d565b92915050565b600060208284031215610dcf57610dce610d7e565b5b6000610ddd84828501610da4565b91505092915050565b610def81610d83565b82525050565b6000602082019050610e0a6000830184610de6565b92915050565b600060ff82169050919050565b610e2681610e10565b82525050565b6000602082019050610e416000830184610e1d565b92915050565b610e5081610e10565b8114610e5b57600080fd5b50565b600081359050610e6d81610e47565b92915050565b600060208284031215610e8957610e88610d7e565b5b6000610e9784828501610e5e565b91505092915050565b600073ffffffffffffffffffffffffffffffffffffffff82169050919050565b6000610ecb82610ea0565b9050919050565b610edb81610ec0565b8114610ee657600080fd5b50565b600081359050610ef881610ed2565b92915050565b600080600060608486031215610f1757610f16610d7e565b5b6000610f2586828701610da4565b9350506020610f3686828701610ee9565b9250506040610f4786828701610ee9565b9150509250925092565b600082825260208201905092915050565b7f696e76616c696420747820696400000000000000000000000000000000000000600082015250565b6000610f98600d83610f51565b9150610fa382610f62565b602082019050919050565b60006020820190508181036000830152610fc781610f8b565b9050919050565b610fd781610ec0565b82525050565b6000602082019050610ff26000830184610fce565b92915050565b60008151905061100781610d8d565b92915050565b60006020828403121561102357611022610d7e565b5b600061103184828501610ff8565b91505092915050565b7f696e73756666696369656e742066756e64730000000000000000000000000000600082015250565b6000611070601283610f51565b915061107b8261103a565b602082019050919050565b6000602082019050818103600083015261109f81611063565b9050919050565b7f7472616e73616374696f6e20616c726561647920636f6d706c65746564000000600082015250565b60006110dc601d83610f51565b91506110e7826110a6565b602082019050919050565b6000602082019050818103600083015261110b816110cf565b9050919050565b7f617070726f76616c7320616c7265616479207265616368656400000000000000600082015250565b6000611148601983610f51565b915061115382611112565b602082019050919050565b600060208201905081810360008301526111778161113b565b9050919050565b7f6e6f7420612076616c6964207369676e65720000000000000000000000000000600082015250565b60006111b4601283610f51565b91506111bf8261117e565b602082019050919050565b600060208201905081810360008301526111e3816111a7565b9050919050565b7f63616e2774207369676e20747769636500000000000000000000000000000000600082015250565b6000611220601083610f51565b915061122b826111ea565b602082019050919050565b6000602082019050818103600083015261124f81611213565b9050919050565b7f4e487b7100000000000000000000000000000000000000000000000000000000600052601160045260246000fd5b600061129082610d83565b915061129b83610d83565b92508282019050808211156112b3576112b2611256565b5b92915050565b60006040820190506112ce6000830185610fce565b6112db6020830184610de6565b9392505050565b60008115159050919050565b6112f7816112e2565b811461130257600080fd5b50565b600081519050611314816112ee565b92915050565b6000602082840312156113305761132f610d7e565b5b600061133e84828501611305565b91505092915050565b600060408201905061135c6000830185610de6565b6113696020830184610fce565b9392505050565b7f71756f72756d20697320746f6f20736d616c6c00000000000000000000000000600082015250565b60006113a6601383610f51565b91506113b182611370565b602082019050919050565b600060208201905081810360008301526113d581611399565b9050919050565b7f71756f72756d2067726561746572207468616e2076616c6964207369676e657260008201527f7300000000000000000000000000000000000000000000000000000000000000602082015250565b6000611438602183610f51565b9150611443826113dc565b604082019050919050565b600060208201905081810360008301526114678161142b565b9050919050565b7f61646472657373207a65726f20666f756e640000000000000000000000000000600082015250565b60006114a4601283610f51565b91506114af8261146e565b602082019050919050565b600060208201905081810360008301526114d381611497565b9050919050565b7f696e76616c6964207369676e6572000000000000000000000000000000000000600082015250565b6000611510600e83610f51565b915061151b826114da565b602082019050919050565b6000602082019050818103600083015261153f81611503565b9050919050565b7f63616e27742073656e64207a65726f20616d6f756e7400000000000000000000600082015250565b600061157c601683610f51565b915061158782611546565b602082019050919050565b600060208201905081810360008301526115ab8161156f565b905091905056fea26469706673582212206ed7f6f203f4a733116169daed4d02e198b2e6d1bb693de13981ca6895a0eb1a64736f6c63430008180033a26469706673582212205add837293abc4a36502f2c032417f396a7484b95e4a0bd88e529f35ca5a89af64736f6c63430008180033",
  "linkReferences": {},
  "deployedLinkReferences": {}
}